:10000000FBC700000C942D080C942D080C942D08AF
:100010000C942D080C942D080C942D080C942D088C
:100020000C942D080C942E2F0C942E2F0C942E2F04
:100030000C942D080C942D080C942D080C942D086C
:100040000C942D080C942D080C942D080C942D085C
:100050000C942D080C942D080C942D080C945F2DF5
:10006000FCC700000C94332C0C940A2CF6C700003B
:10007000F4C70000F2C70000F0C70000EEC70000A0
:10008000ECC70000EAC70000E8C70000E6C70000B0
:10009000E4C70000E2C70000E0C70000DEC70000C0
:1000A000DCC70000DAC70000D8C70000D6C70000D0
:1000B000D4C70000D2C70000D0C70000CEC70000E0
:1000C000CCC70000CAC70000C8C70000C6C70000F0
:1000D000C4C70000C2C70000C0C70000BEC7000000
:1000E000BCC70000032B062BF52AF92AFF2A3D2B5B
:1000F0000A2B0E2B142B182B1C2B222B262B2A2BD6
:100100003D2B302B342B382B00407A10F35A00A0B3
:10011000724E18090010A5D4E80000E876481700D0
:1001200000E40B54020000CA9A3B000000E1F50510
:10013000000080969800000040420F000000A0865A
:1001400001000000102700000000E803000000008C
:100150006400000000000A00000000000100000030
:1001600000002C76D888DC674F0823DFC1DFAE594A
:10017000E1B1B796E5E3E453C63AE651997696E8DD
:10018000E6C28426EB898C9B62ED407C6FFCEFBC61
:100190009C9F40F2BAA56FA5F490055A2AF75C938C
:1001A0006B6CF9676DC11BFCE0E40D47FEF520E6C2
:1001B000B500D0ED902E0300943577050080841EA5
:1001C000080000204E0A000000C80C333333330F00
:1001D000986E12831141EF8D2114893BE65516CF9D
:1001E000FEE6DB18D1844B381BF77C1D901DA4BBA9
:1001F000E424203284725E228100C9F124ECA1E55E
:100200003D2763616E6E6F74207374617274205346
:100210004400726573706F6E73652069732000759A
:100220006E737570706F727465642070616C657444
:10023000746500756E737570706F727465642042BA
:100240004D5020666F726D61740077726F6E67201B
:100250006E756D626572206F6620706C616E65737D
:100260000062616420424D50204944006261642074
:10027000706F736974696F6E006D7300202D2000BC
:100280007C3C3E5E2B3D3F2F5B5D3B2C2A225C007D
:1002900000000000003E5B4F5B3E3E6B4F6B3E1C20
:1002A0003E7C3E1C183C7E3C181C577D571C1C5E37
:1002B0007F5E1C00183C1800FFE7C3E7FF0018240E
:1002C0001800FFE7DBE7FF30483A060E26297929B8
:1002D00026407F050507407F05253F5A3CE73C5AED
:1002E0007F3E1C1C08081C1C3E7F14227F22145FCA
:1002F0005F005F5F06097F017F006689956A606025
:1003000060606094A2FFA29408047E040810207E1E
:10031000201008082A1C08081C2A08081E101010A3
:10032000100C1E0C1E0C30383E3830060E3E0E06E9
:10033000000000000000005F00000007000700143C
:100340007F147F14242A7F2A1223130864623649FB
:100350005620500008070300001C224100004122E3
:100360001C002A1C7F1C2A08083E080800807030E8
:100370000008080808080000606000201008040257
:100380003E5149453E00427F40007249494946215D
:1003900041494D331814127F1027454545393C4AD1
:1003A00049493141211109073649494936464949E8
:1003B000291E000014000000403400000008142230
:1003C000411414141414004122140802015909069E
:1003D0003E415D594E7C1211127C7F494949363E9F
:1003E000414141227F4141413E7F494949417F0985
:1003F0000909013E414151737F0808087F00417F90
:1004000041002040413F017F081422417F4040408D
:10041000407F021C027F7F0408107F3E4141413E25
:100420007F090909063E4151215E7F0919294626A7
:100430004949493203017F01033F4040403F1F20AB
:1004400040201F3F4038403F631408146303047882
:1004500004036159494D43007F41414102040810A2
:1004600020004141417F04020102044040404040DD
:10047000000307080020545478407F28444438384B
:1004800044444428384444287F38545454180008BD
:100490007E090218A4A49C787F0804047800447D97
:1004A00040002040403D007F1028440000417F4034
:1004B000007C047804787C08040478384444443888
:1004C000FC1824241818242418FC7C080404084868
:1004D0005454542404043F44243C4040207C1C20B9
:1004E00040201C3C4030403C44281028444C909014
:1004F000907C4464544C440008364100000077006E
:1005000000004136080002010204023C2623263C7A
:100510001EA1A161123A4040207A38545455592105
:1005200055557941225454784221555478402054ED
:100530005579400C1E52721239555555593954543B
:10054000545939555454580000457C410002457DAA
:10055000420001457C407D1211127DF0282528F0D3
:100560007C545545002054547C547C0A097F493200
:10057000494949323A4444443A324A4848303A4177
:1005800041217A3A42402078009DA0A07D3D424220
:10059000423D3D4040403D3C24FF2424487E4943A9
:1005A000662B2FFC2F2BFF0929F620C0887E09031C
:1005B00020545479410000447D413048484A323843
:1005C0004040227A007A0A0A727D0D19317D26296F
:1005D000292F28262929292630484D402038080867
:1005E000080808080808382F10C8ACBA2F1028349B
:1005F000FA00007B000008142A142222142A14088E
:100600005500550055AA55AA55AAFF55FF55FF009C
:100610000000FF00101010FF00141414FF00101051
:10062000FF00FF1010F010F0141414FC001414F765
:1006300000FF0000FF00FF1414F404FC1414171052
:100640001F10101F101F1414141F00101010F000A2
:100650000000001F101010101F10101010F01000DC
:100660000000FF101010101010101010FF100000EC
:1006700000FF140000FF00FF00001F10170000FC27
:1006800004F414141710171414F404F40000FF00F9
:10069000F714141414141414F700F7141414171482
:1006A00010101F101F141414F4141010F010F00088
:1006B000001F101F0000001F14000000FC140000A9
:1006C000F010F01010FF10FF141414FF141010108D
:1006D0001F00000000F010FFFFFFFFFFF0F0F0F040
:1006E000F0FFFFFF0000000000FFFF0F0F0F0F0FD4
:1006F0003844443844FC4A4A4A347E020206060220
:100700007E027E0263554941633844443C04407E86
:10071000201E2006027E020299A5E7A5991C2A49FF
:100720002A1C4C7201724C304A4D4D30304878488A
:1007300030BC625A463D3E494949007E0101017E76
:100740002A2A2A2A2A44445F444440514A444040C9
:10075000444A51400000FF0103E080FF0000080808
:100760006B6B083612362436060F090F0600001888
:10077000180000001010003040FF0101001F0101AF
:100780001E00191D1712003C3C3C3C0000000000FC
:1007900000002100240027002A002D003000330033
:1007A00001010000040107010A0100000A0B02090F
:1007B0000C0D0E08070304010000000000000000FB
:1007C0000000000000000000000000000000000029
:1007D00000000000000012111000000000000000E6
:1007E0000000000000000000000000000000000009
:1007F00000002200250028002B002E0031003400CC
:1008000002010000050108010B0100002000230087
:10081000260029002C002F003200000100000301F7
:100820000601090105050505070508080808020273
:1008300002020A0A0808040404040101010101017A
:1008400001010303030303030303040707070C0C5D
:100850000C0C0C0C0C0C0202020206060606060624
:1008600006060B0B0B0B0B0B0B0B010210202008C9
:1008700008102040102040800201020108040201FB
:10088000010204081020408080402010080402016A
:1008900080040201804020100804020108040201C3
:1008A000010204081020408001020408102040804A
:1008B00011007F96290001007F9628003A0155C05B
:1008C000021010C10141C50400228040360168B009
:1008D0000100B102B011B40102B60302023BB7013C
:1008E000C63A0155F704A9512C82C0020D0DC10270
:1008F0004300C20100C50400480048B40100B6032B
:1009000002023BE00F0F211C0B0E08499838091119
:1009100003141000E10F0F2F2B0C0E06477637073C
:100920001104231E00B00100B30402000000B40152
:1009300000D003074218D103000710D2020102D3EE
:10094000020102D4020102C005123B000211C103E0
:10095000101088C50103C60102C80C0032364506D6
:1009600016377577540C00CC0100F603010100CF57
:1009700003008130ED0464031281E803851078CB15
:1009800005392C003402F70120EA020000B0010012
:10099000B102001BB40100C00121C10111C5023F19
:1009A0003CC701B5360148F20100260101E00F0FF6
:1009B00026240B0E0954A8460C17090F0700E10F57
:1009C00000191B0410072A473903060630380F3672
:1009D0000100B00100C10410100202C00600350081
:1009E000000102C50104D2020104CA0100EA01802B
:1009F000B903FF83577F967F96B60125C0065050F6
:100A0000013C1E08B4070240002A2A0D787F01F23B
:100A10000B1616030808080810041616FD03110229
:100A200035B2050C0C003333B70135BB012BC001C7
:100A300004C20201FFC30111C40120C6010FD0028C
:100A4000A4A1E00ED000050E150D3743470915127D
:100A50001619E10ED000050D0C062D44400E1C1891
:100A600016193A01557F0AB00103E2013FC0012285
:100A7000E20100B00100C0010AB001000000000066
:100A8000000000000000000000000000FFFF0F0059
:100A900000040062080008080003000C01030B5A60
:100AA00002030609030317100403002305030017BC
:100AB000060309630703090C08030C10090332221B
:100AC00010001600110001011200000013000100C7
:100AD00000013003010137020301000D80020061B3
:100AE0000201B0C1FFFF320001000001020000015D
:100AF00003003010090001000C000000900000808D
:100B00000F000000100200001102EF0012020000AE
:100B100013028F01000500000105000002055F00BF
:100B20000104010004040000FFFF3200070000017F
:100B3000FFFF320000020000010200000000000080
:100B4000000000000000000000000100A4000100FF
:100B5000FFFF0A00600000270800080830001402A8
:100B600031001537320004063300160E340011220E
:100B700035000015360007853700071438000314C8
:100B800039002000900015001000100411003702F9
:100B9000290046002A0046000700000012008901D3
:100BA00013000011FFFF96001200B90101000001BF
:100BB0000200000203003010090001000A000000DA
:100BC0000D0000000E003000610001006A0000000E
:100BD000800000008100000082005F0092000001A0
:100BE00093000107FFFF500007000001E500F078C7
:100BF00001000001020000020300301004000000A8
:100C00000500000008000702090000000A000000BB
:100C10000C0000000D0000000F000000100000009C
:100C2000110007001200000013000000070001007F
:100C3000FFFFC8001000901611002702FFFF3200CE
:100C400012000D00FFFF32001300001229000A00FD
:100C50002B000D00FFFF32002000000021000000EB
:100C600030000000310004043200030035000504A8
:100C70003600080837000704380003033900070767
:100C80003C0004053D0008086000002761000100E9
:100C90006A00000080000000810000008200000067
:100CA0008300000084000000850000009000100018
:100CB0009200000007003301E50000800000010001
:100CC00001000001020000070300301004000000D2
:100CD00008000202090000000A0000000C000000E9
:100CE0000D0000000F0000001000000011000700C0
:100CF0001200000013000000FFFF32001000B017C8
:100D000011000700FFFF0A0012003A01FFFF0A006E
:100D10001300001A29000C00FFFF0A003000000039
:100D200031000505320004003500060036000707D3
:100D30003700050138000200390007073C000407AE
:100D40003D000708600000A7610001006A00000084
:100D50002100000020000000800000008100000051
:100D60008200000083000000840000008500000075
:100D70009000100092000000930003009500100105
:100D8000970000009800000007007301FFFF320089
:100D9000FFFF6400460002001000901511002702BA
:100DA0001200FF801300319CFFFF0A0002000003C5
:100DB00003003010600000A7610001003000030351
:100DC0003100030332000303330000033400030047
:100DD0003500030336000014370003033800030313
:100DE000390003033A0000033B0003003C00030307
:100DF0003D000014200000002100000080000000E1
:100E000081000000820000008300000084000000D8
:100E10008500000092000002930003039000100080
:100E200000000100FFFFC80007007301FF00010080
:100E3000F3000800000001000100000102000007AB
:100E40000300301008000203090000001000000039
:100E5000110007001200000013000000FFFF320025
:100E60001000B014FFFF0A0011000700FFFF0A0086
:100E700012008E001300000C29001500FFFF0A006D
:100E8000300000003100070132000000350003028D
:100E90003600020437000000380007023900000065
:100EA0003C0003023D000304600000A76100010054
:100EB0009000290007003301FFFF320015003000C9
:100EC0009A001000110020001000283412000200C7
:100ED00013003810FFFF280012001200FFFF280047
:100EE0001000203413004530FFFF460030000000A2
:100EF000310002043200070333000403340004000D
:100F000035000104360007073700050338001006D6
:100F10003900100601000001020000030300301038
:100F2000080008080A0008006000002761000100AE
:100F300090003E019200000193000001A0000030EB
:100F4000A300100007000100070021000700230094
:100F5000070033000700330111001A00120021318D
:100F600013006C001400494210000008FFFF0A0043
:100F700011001A01FFFF0A0011001A03FFFF0A0007
:100F800011001A07FFFF0A0011001A0FFFFF0A00E5
:100F900011003A0FFFFF1E000100280102000001AE
:100FA0000300301007001210080003030B000011AB
:100FB0000C0000000F000118150020005000010176
:100FC00051000306520008045300000054000506B7
:100FD0005500060456000303570003035800100091
:100FE0005900001007001200FFFF2800070013003F
:100FF00007001700C5517C5111241FBECFEFD1E26D
:10100000DEBFCDBF00E00CBF16E0A0E0B2E0E6EB33
:10101000F8EB00E00BBF02C007900D92A432B107BD
:10102000D9F72AE0A4E2B6E001C01D92AE39B207BA
:10103000E1F717E0CBEFD7E000E006C02197010908
:10104000802FFE010E94BF59CA3FD10780E00807E8
:10105000A9F70E94F5460C944A5C0C940000EF92AC
:10106000FF920F931F93DC01ED91FC9111971A965B
:101070000D911C911B9718962D913C91199700A0EA
:10108000F1A1E02D7B0140E050E060E070E01995B7
:101090001F910F91FF90EF900895EF92FF920F93A1
:1010A0001F93DC01ED91FC9100A0F1A1E02D7801EE
:1010B00001E010E019951F910F91FF90EF900895B6
:1010C000EF92FF920F931F930E9485460E94D43F98
:1010D00090933706809336060E94E53C0E949C3828
:1010E00060E08DEE97E00E941B356FEF7FEF8DEE95
:1010F00097E0B5DF8091F5079091F60766E070E024
:101100000E94AC599B0170932B0660932A06E12C38
:1011100088EFF82E8B0140E050E060E070E08DEE4B
:1011200097E00E94542760912A0670912B0690EE5A
:10113000E92EFF24FA948B019B0140E050E08DEEF4
:1011400097E00E94542720912A0630912B06B9017E
:10115000660F771F50EEE52E57E0F52E890140E02F
:1011600050E08DEE97E00E94542720912A0630919E
:101170002B06B901660F771F620F731FEE24EA94E6
:10118000F7E0FF2E890140E050E08DEE97E00E94ED
:10119000542720912A0630912B06B901660F771F3C
:1011A000660F771FBFE1EB2EF12C890140E050E084
:1011B0008DEE97E00E94542720912A0630912B064D
:1011C00085E0829FB001839F700D11241FE1E12E05
:1011D00018EFF12E890140E050E08DEE97E00E947B
:1011E000542720912A0630912B06E12CF12C8901FD
:1011F00040E050E060E070E08DEE97E00E94212436
:1012000080E098EF909329068093280668EE73E0BB
:1012100080E090E01F910F91FF90EF900C941B2DB8
:10122000EF92FF920F931F93CF93DF93CDB7DEB76B
:101230006B970FB6F894DEBF0FBECDBF7C018B015C
:10124000FC01808191810E94C843F7016081718116
:1012500043E1CE0101960E94D342EA8DFB8D309787
:10126000C9F085818823B1F060E774E089E896E0F1
:101270000E94E046F8014481558160817181CE0170
:1012800001960E94C826CE0101960E94F12087E8AF
:1012900094E002C08DE894E00E9435426B960FB650
:1012A000F894DEBF0FBECDBFDF91CF911F910F919C
:1012B000FF90EF900895EF92FF920F931F93CF93BB
:1012C000DF93CDB7DEB7C254D1090FB6F894DEBFB5
:1012D0000FBECDBF8C017B0164E073E0CE01C796E9
:1012E0000E94DD41CE0101960E94D928F70160815C
:1012F000718141E0CE014C960E94D3428E8D9F8D2C
:101300009C838B8388A199A1AAA1BBA18D839E8375
:10131000AF83B8878CA19DA1AEA1BFA189879A8711
:10132000AB87BC878DE0FE01B896DE011D9601906B
:101330000D928A95E1F7EDA9FEA9FB8FEA8F309710
:1013400019F08581811109C08DE194E00E94354238
:10135000CE01C7960E94D0415AC081E090E00E9421
:10136000D540CE0101960E94F617892B99F1CE0146
:1013700001960E9438291EAE1DAE21961FAE1EAEEC
:10138000219723961FAE1EAE23978C8F1D8EBE0114
:10139000645E7F4FCE01CD960E946D41BE01695CB7
:1013A0007F4FCE014C960E94D541BE01635C7F4FBA
:1013B000CE014C960E945C41BC01CE01C7960E94B2
:1013C0008241CE014C960E94D041CE01CD960E9422
:1013D000D041C7CFCE0101960E94F120CE01C79621
:1013E0000E940D4585E494E00E943542F801118287
:1013F00010821382128215821482BE01695C7F4FB3
:10140000C8010E949741CE01C7960E94D041C801F1
:10141000CE5BDF4F0FB6F894DEBF0FBECDBFDF91BE
:10142000CF911F910F91FF90EF900895EF92FF924F
:101430000F931F93CF93DF93CDB7DEB72C970FB6E3
:10144000F894DEBF0FBECDBF8C0166ED74E0CE0117
:1014500001960E94DD41BE016F5F7F4FCE0107966E
:101460002ADF80E290E00E94DB597C0124E030E03A
:1014700043E2BE01695F7F4F0E94C92DCE010796EE
:101480000E94D041CE0101960E94D04143E050E03D
:10149000B701CE0101960E94A92DCE0101960E94AE
:1014A0000D45BE016F5F7F4FCE0107960E94D5416B
:1014B00080E290E00E94DB597C0123E030E043E2CF
:1014C000BE01695F7F4F0E94C92DCE0107960E9421
:1014D000D04142E050E0B701C8010E94A92DC801E7
:1014E0000E940D45CE0101960E94D041C8012C9664
:1014F0000FB6F894DEBF0FBECDBFDF91CF911F9125
:101500000F91FF90EF900895EF92FF920F931F932A
:10151000CF93DF93CDB7DEB72C970FB6F894DEBF2D
:101520000FBECDBF8C0166ED74E0CE0101960E9426
:10153000DD41BE016F5F7F4FCE010796BCDE80E2CA
:1015400090E00E94DB597C0124E030E043E2BE01E0
:10155000695F7F4F0E94C92DCE0107960E94D0413E
:10156000CE0101960E94D04143E050E0B701CE0188
:1015700001960E94A92DCE0101960E940D45BE0143
:101580006F5F7F4FCE0107960E94D54180E290E0C9
:101590000E94DB597C0123E030E043E2BE01695F39
:1015A0007F4F0E94C92DCE0107960E94D04141E095
:1015B00050E0B701C8010E94A92DC8010E940D4545
:1015C000CE0101960E94D041C8012C960FB6F89426
:1015D000DEBF0FBECDBFDF91CF911F910F91FF9066
:1015E000EF900895CF92DF92EF92FF92CF93DF9327
:1015F000CDB7DEB72C970FB6F894DEBF0FBECDBFC8
:101600007C016B0164E073E0CE0101960E94DD4134
:10161000B701CE0107960E94D54162E073E0CE018A
:1016200007960E944541BC01C7010E948241CE013C
:1016300007960E94D041F7014481558160817181F4
:1016400084E598E00E94B5460E94532D0D2C000CB5
:10165000EE08FF08C60ED71EE81EF91E0E94532D85
:101660006C157D058E059F05B0F484E598E00E9419
:10167000D02B892B99F384E598E00E94E72B8F8388
:10168000188641E050E0BE01695F7F4FCE010196B0
:101690000E941841EACF82E192E00E949C44CE0170
:1016A00001960E940D45CE0101960E94D0412C96D4
:1016B0000FB6F894DEBF0FBECDBFDF91CF91FF9084
:1016C000EF90DF90CF9008958F929F92AF92BF924C
:1016D000CF92DF92EF92FF920F931F93CF93DF93FE
:1016E000CDB7DEB7EF970FB6F894DEBF0FBECDBF14
:1016F00063E174E0CE01C4960E94DD41BE016C5CE2
:101700007F4FCE01CA96D7DD64E073E0CE018896A4
:101710000E94DD4181E298E00E9449381BA21AA292
:101720001DA21CA21FA21EA2625A7E468E4F9F4F70
:101730000E94505720E030E84EEE53E40E940459D6
:1017400020E030E048EC52E40E9404592DEC3CECDF
:101750004CEC5DE30E949F589E012F5F3F4F790143
:10176000890122E044E00E945454BC01CE018296DB
:101770000E946D41BE016E5D7F4FCE0188960E9432
:101780009741CE0182960E94D04164EA74E0C7017D
:101790000E94DD41BE01685D7F4FC7010E945C4130
:1017A00062EB74E00E944541BE01665C7F4F0E947F
:1017B0005C41BC01CE018E960E94D541C7010E94BA
:1017C000D041CE0188960E94D041CE01CA960E9497
:1017D000D041CE01C4960E94D041CE018E960E9487
:1017E0000D45BE01625D7F4FCE0188960E94D541B6
:1017F000CE0188960E940D4566EB74E0CE0182967C
:101800000E94DD418CA59DA54AE0B70102960E9489
:10181000B854F70101900020E9F73197AF014E1954
:101820005F09B701CE0182960E941841BE016E5D2C
:101830007F4FC7010E94D54164E170E0C701D2DE4D
:10184000C7010E94D041BE01685D7F4FC7010E9461
:10185000D54164E170E0C701C5DEC7010E94D041F7
:10186000CE0182960E94D041CE0188960E94D0413E
:1018700084E598E00E94D02B892B09F4DCC064E059
:1018800073E0CE0188960E94DD4184E598E00E94D5
:10189000E72B8A3081F089831A8241E050E0B7015A
:1018A000CE0188960E94184164E170E080E090E0EB
:1018B0000E941B2DEACFC8A4D9A4C114D104E1F120
:1018C0000CA51DA501151105B9F1460154013FEF05
:1018D000831A930AF5018081082E000C990B0E944F
:1018E0003657892B99F7015011090C0D1D1DF80170
:1018F0008081082E000C990B0E943657892B79F4B1
:10190000A8014F5F5F4F4A195B095DA74CA7CA1436
:10191000DB0458F4B501C6010E94FD5B06C00A1540
:101920001B0570F301501109E2CFE8A5F9A58CA5BC
:101930009DA5E80FF91F108264EC74E0C7010E94B6
:10194000DD41BE01685D7F4FC7010E945C410E947E
:101950000D45C7010E94D0410CA51DA5011511051B
:1019600009F482CFC8A4D9A46AE370E0C6010E943A
:10197000065C009709F478CFAC014C195D0957FD5E
:1019800073CF4F5F5F4F9801BE01685D7F4FC70106
:101990000E94F141B701CE0188960E949741C7018C
:1019A0000E94D04164EC74E0C7010E94DD41BE0199
:1019B000685D7F4FC7010E945C410E940D45C701D1
:1019C0000E94D04122E030E040E050E0BE01685D7E
:1019D0007F4FC7010E94F1418D819E81892B49F083
:1019E00062ED74E089819A810E94115C11E0892B7B
:1019F00009F010E0C7010E94D0411123B9F0BE01E7
:101A0000685D7F4FC7010E94D54165ED74E0CE014E
:101A100082960E94DD41B701CE01829601DCCE01A3
:101A200082960E94D041C7010E94D04180EE94E08E
:101A30000E94354219CFCE018E960E94D041EF967A
:101A40000FB6F894DEBF0FBECDBFDF91CF911F91CF
:101A50000F91FF90EF90DF90CF90BF90AF909F904D
:101A60008F900895CF93DF93CDB7DEB7E0970FB691
:101A7000F894DEBF0FBECDBF68E173E0CE014F9694
:101A80000E94DD4163E075E0CE0149960E94DD4190
:101A900061E175E0CE0143960E94DD4163E174E0AF
:101AA000CE0107960E94DD41BE01695F7F4FCE01E6
:101AB000859601DC6CE175E0CE0101960E94DD4166
:101AC000BE016B5D7F4FCE0101960E945C4168EBC9
:101AD00073E00E944541BC01CE010D960E94D541A4
:101AE000CE0101960E94D041CE0185960E94D04140
:101AF000CE0107960E94D041CE018B9697DCCE0195
:101B0000859602DD64E275E0CE0101960E94DD411A
:101B1000BE016B5D7F4FCE0101960E945C4162E287
:101B200075E00E944541BE01655D7F4F0E945C41AA
:101B300068EB73E00E944541BC01CE0107960E940C
:101B4000D541CE0101960E94D041CE0185960E94DA
:101B5000D041CE018B960E94D0416CE275E0CE015F
:101B600001960E94DD4180912C0690912D060097F0
:101B700009F07AC061E08DEE97E00E941B358091FC
:101B8000000290910102019690930102809300025D
:101B9000873091054CF086E090E0909301028093AD
:101BA00000020E94D54083C08330910501F15CF4AE
:101BB00081309105B1F0029709F053C00E94DE1602
:101BC00081E495E019C08530910509F444C0BCF06A
:101BD000069709F046C089819A8109D38BE595E083
:101BE0000BC08F8D98A103D38CE395E005C08B8942
:101BF0009C89FDD286E495E00E94354258C06BE492
:101C000075E0CE0185960E94DD41BE01635F7F4F86
:101C1000CE0185960E945C410E940D45CE018596BD
:101C20000E94D0418D859E85E2D26EE475E0CE01A2
:101C300085960E94DD41BE01635F7F4FCE01859690
:101C40000E945C410E940D45CE0185960E94D041C4
:101C500081E595E0D1CF8F819885C9D286E595E061
:101C6000CBCF8DE194E0C8CF019709F580E695E0F0
:101C70000E94354280912E06811107C087E695E0CB
:101C8000B6D281E080932E0605C085E795E0AFD2FD
:101C900010922E0681E090E0909301028093000262
:101CA00088E193E0A4D210922D0610922C06CE016A
:101CB00001960E94D041CE0107960E94D041CE01EC
:101CC0000D960E94D041CE0143960E94D041CE0194
:101CD00049960E94D041CE014F960E94D041E09695
:101CE0000FB6F894DEBF0FBECDBFDF91CF91089540
:101CF000CF93DF93CDB7DEB7E0970FB6F894DEBF92
:101D00000FBECDBF68E173E0CE014F960E94DD416A
:101D100063E075E0CE0149960E94DD4161E175E026
:101D2000CE0143960E94DD4163E174E0CE01079647
:101D30000E94DD41BE01695F7F4FCE018596BBDA0F
:101D40006CE175E0CE0101960E94DD41BE016B5D44
:101D50007F4FCE0101960E945C4168EB73E00E94C8
:101D60004541BC01CE010D960E94D541CE010196A0
:101D70000E94D041CE0185960E94D041CE010796A7
:101D80000E94D041CE018B9651DBCE018596BCDB03
:101D900064E275E0CE0101960E94DD41BE016B5DFB
:101DA0007F4FCE0101960E945C4162E275E00E9485
:101DB0004541BE01655D7F4F0E945C4168EB73E069
:101DC0000E944541BC01CE0107960E94D541CE013B
:101DD00001960E94D041CE0185960E94D041CE014D
:101DE0008B960E94D0416CE275E0CE0101960E9474
:101DF000DD4180912C0690912D06009709F050C08E
:101E000061E08DEE97E00E941B3580910002909179
:101E1000010201979093010280930002181619069F
:101E20004CF081E090E090930102809300020E94C8
:101E3000D54059C083309105E1F04CF481309105D3
:101E400091F0029751F5BAD781E495E017C085303B
:101E50009105E9F0B4F0069701F589819A81C7D11F
:101E60008BE595E00BC08F8D98A1C1D18CE395E0F7
:101E700005C08B899C89BBD186E495E00E943542E0
:101E800032C08D859E85B3D181E595E0F7CF8F81F6
:101E90009885ADD186E595E0F1CF8DE194E0EECF68
:101EA000019709F583E193E00E94354280912E0667
:101EB000811107C085E895E09AD181E080932E06D4
:101EC00005C083E995E093D110922E0681E090E061
:101ED000909301028093000288E193E088D11092F0
:101EE0002D0610922C06CE0101960E94D041CE0103
:101EF00007960E94D041CE010D960E94D041CE019E
:101F000043960E94D041CE0149960E94D041CE0115
:101F10004F960E94D041E0960FB6F894DEBF0FBEF8
:101F2000CDBFDF91CF9108950F931F93FC010285E0
:101F3000138524853585401B510B620B730B77FD90
:101F400002C0808901C080E01F910F910895FC01BB
:101F5000428353836483758386819781A085B1858D
:101F6000480F591F6A1F7B1F4287538764877587F5
:101F700008950F931F93CF93DF93EC01EE85FF85B8
:101F8000309709F019950E94532D6E837F838887BF
:101F900099870A811B812C813D81DC01CB01800F57
:101FA000911FA21FB31F8A879B87AC87BD87DF91D4
:101FB000CF911F910F910895CF92DF92EF92FF92F0
:101FC0000F931F93CF93DF93CDB7DEB7A4970FB6D0
:101FD000F894DEBF0FBECDBF6C017B0121E030E085
:101FE00040E050E0BC01CE014F960E94F141CE018D
:101FF0004F960E940D4129E12E9D80012F9D100DCD
:102000001124005B1F4FDC01CB010197A109B1092D
:1020100026E0F22EF89EF001F99EF00D1124E05911
:10202000F84F4081518162E270E0C8010E94224570
:1020300022E030E041E050E0B601CE0149960E9436
:10204000F141CE0149960E940D41DC01CB0101977F
:10205000A109B109F89EF001F99EF00D1124E05993
:10206000F84F4081518164E470E0C8010E9422452C
:1020700023E030E042E050E0B601CE0143960E94FA
:10208000F141CE0143960E940D41DC01CB01019745
:10209000A109B109F89EF001F99EF00D1124E05953
:1020A000F84F4081518166E670E0C8010E942245E8
:1020B00024E030E043E050E0B601CE010D960E94EE
:1020C000F141CE010D960E940D41DC01CB0101973B
:1020D000A109B109F89EF001F99EF00D1124E05913
:1020E000F84F4081518168E870E0C8010E942245A4
:1020F00025E030E044E050E0B601CE0107960E94B2
:10210000F141CE0107960E940D41DC01CB01019700
:10211000A109B109F89EF001F99EF00D1124E059D2
:10212000F84F408151816AEA70E0C8010E9422455F
:1021300026E030E045E050E0B601CE0101960E9475
:10214000F141CE0101960E940D41DC01CB010197C6
:10215000A109B109F89EF001F99EF00D1124E05992
:10216000F84F408151816CEC70E0C8010E9422451B
:10217000CE0101960E94D041CE0107960E94D04127
:10218000CE010D960E94D041CE0143960E94D041CF
:10219000CE0149960E94D041CE014F960E94D04177
:1021A000A4960FB6F894DEBF0FBECDBFDF91CF91DE
:1021B0001F910F91FF90EF90DF90CF900895CF93F4
:1021C000DF9300D01F92CDB7DEB744E050E0BE01F0
:1021D0006F5F7F4F0E94022169817A818B819C8190
:1021E0000F900F900F900F90DF91CF9108952F9245
:1021F0003F924F925F926F927F928F929F92AF9297
:10220000BF92CF92DF92EF92FF920F931F93CF93E3
:10221000DF93CDB7DEB7C95AD1090FB6F894DEBF48
:102220000FBECDBF1C010E9435426091B207709174
:10223000B307C1010E94115C8C011EAE1DAE219638
:102240001FAE1EAE219723961FAE1EAE23974AE007
:10225000BE016F5F7F4F0E949954BE016F5F7F4F39
:10226000CE01CD960E946D41CE01CD960E940D45C6
:10227000CE01CD960E94D041012B09F485C568EBB3
:1022800073E0C1010E94305C892B09F47DC52114E3
:10229000310409F479C5C1010E9435428CE792E00E
:1022A0000E949C4460E070E08DEE97E00E942F0851
:1022B0000E94532DCC55DF4F688379838A839B839B
:1022C000C45AD040CE0189599F4F0E94D92880918D
:1022D000F5079091F6071816190644F48091F70750
:1022E0009091F807181619060CF43FC011E0B101DF
:1022F00082EB97E00E946D41133061F128F41130B8
:1023000019F1123021F104C0143039F1153041F1C6
:102310000E94532DCC55DF4F288139814A815B8142
:10232000C45AD040621B730B840B950B4AE00E9489
:10233000BD4489E792E00E94FF4468EB7BE080E0C7
:1023400090E00E941B2D20C58CE692E00BC081E638
:1023500092E008C08AE492E005C083E392E002C004
:102360008FE192E00E94FF440FC541E0B101CE0130
:1023700001960E94D3428B819C81AB969FAF8EAF1A
:10238000AB978D819E81AF81B885AF968CAF9DAFA5
:10239000AEAFBFAFAF9789859A85AB85BC85E39615
:1023A0008CAF9DAFAEAFBFAFE3978DE0FE013D9622
:1023B000A7E6B0E0AC0FBD1F1C9601900D928A9568
:1023C000E1F78A8D9B8DC058DF4F99838883C05871
:1023D000D04042E050E0BE016F5F7F4FCE0189598F
:1023E0009F4F0E940221A980BA80CE0189599F4F38
:1023F000E6DECE0189599F4FE2DECE0189599F4F1B
:10240000DEDEC557DF4F688379838A839B83CB5891
:10241000D040CE0189599F4FD2DECE0189599F4FBE
:10242000CEDE6B017C01CE0189599F4FC8DECD57AE
:10243000DF4F688379838A839B83C358D04042E00F
:1024400050E0BE016F5F7F4FCE0189599F4F0E94C0
:10245000022109811A8142E050E0BE016F5F7F4F87
:10246000CE0189599F4F0E94022129813A81CE01D4
:1024700089599F4FC855DF4F2883C85AD040C75548
:10248000DF4F3883C95AD0409ADECA56DF4F68837F
:1024900079838A839B83C659D040C855DF4F2881F2
:1024A000C85AD040C755DF4F3881C95AD04042E49E
:1024B000A4164DE4B40609F060C40130110509F01A
:1024C00056C4CA56DF4F88819981AA81BB81C659FB
:1024D000D0400097A105B10529F00397A105B105EA
:1024E00009F047C4C056DF4F2883C05AD0408FEF51
:1024F000820F8F3008F43FC4CD57DF4F688079805A
:10250000C358D0405901BB24AC9CC001AD9C900D78
:10251000BC9C900D112497FD079663E095958795D7
:102520006A95E1F703968C7F9C01990F440B550B3C
:10253000C656DF4F288339834A835B83CA59D0400C
:1025400077FE0FC0CD57DF4F68807980C358D040E9
:10255000719461947108CF55DF4F1882C15AD040F1
:1025600006C031E0CF55DF4F3883C15AD04080914B
:10257000F5079091F607CD57DF4FD982C882C3582F
:10258000D0408C159D0534F4CD57DF4F9983888357
:10259000C358D0408091F7079091F807CC56DF4F91
:1025A00079826882C459D0408615970534F4CC5698
:1025B000DF4F99838883C459D040C056DF4F58817C
:1025C000C05AD040511179C0C058DF4F88819981DD
:1025D000C058D040009729F046E350E060E070E03A
:1025E000DFD601E010E00A2C02C0000F111F0A9490
:1025F000E2F785E190E0DC01A01BB10BC157DF4F92
:10260000B983A883CF58D040CD01880F991FEDE33F
:10261000F0E0EC0FFD1FE80FF91FC256DF4FF98302
:10262000E883CE59D0407F01C12CD12CC016D106F1
:1026300009F451C0CE0189599F4FC1DD9B01AC0106
:1026400022273C7F44275527E5E056954795379547
:102650002795EA95D1F7C957DF4F288339834A83F5
:102660005B83C758D0409B01AC01287F33274427A8
:102670005527F3E05695479537952795FA95D1F765
:10268000C957DF4FA881B981C758D0402A2B3B2BAF
:10269000DC01CB0188279927A87FBB27892F9A2F98
:1026A000AB2FBB27B901682B792BF701619371938D
:1026B0007F01FFEFCF1ADF0AB9CF25E130E0C15724
:1026C000DF4F39832883CF58D040C256DF4F19825D
:1026D0001882CE59D040CC56DF4F08811981C45999
:1026E000D04001501109CD57DF4F28813981C3589F
:1026F000D0402150310940E050E060E070E08DEEC4
:1027000097E00E941E34C301770CAA0BBB0B9C01FF
:10271000AD012150310941095109C656DF4F688189
:1027200079818A819B81CA59D0400E949D59C557A1
:10273000DF4F488059806A807B80CB58D0409B0116
:10274000AC01240D351D461D571DC957DF4F288389
:1027500039834A835B83C758D04031E0CD56DF4F81
:102760003883C359D040C12CD12CCC56DF4FA8811F
:10277000B981C459D040CA16DB060CF0E2C2CF556D
:10278000DF4F4881C15AD040442349F0C957DF4F39
:10279000488159816A817B81C758D04002C0B3010A
:1027A000A201C058DF4F88819981C058D04000975E
:1027B00071F0DC011A960D911D912D913C911D97A0
:1027C000041715072607370751F0EAD505C04F3F14
:1027D0005F4F6F4F7F4F19F06CE3862E912CE12CE9
:1027E000F12CCD57DF4F48815981C358D040E416B2
:1027F000F5060CF082C2CD57DF4F08811981C3580E
:10280000D0400E191F09C157DF4FE881F981CF5819
:10281000D040E017F1070CF48F019E01235C3F4F7D
:10282000CE55DF4F39832883C25AD040C557DF4F7A
:1028300019821882CB58D040C557DF4F2881398183
:10284000CB58D040201731070CF01AC13CE3831657
:10285000910440F14CE350E0BE016F5F7F4FCE0129
:1028600089599F4F0E94022148E0A416B10409F43F
:10287000B2C05CF481E0A816B10409F4ACC094E0E5
:10288000A916B10409F0D2C0A6C0A0E1AA16B104ED
:1028900009F44EC0B8E1AB16B10409F0C7C0812CF1
:1028A000912C1AC0E8E0AE16B10409F48CC05CF4B7
:1028B00021E0A216B10409F486C034E0A316B104E5
:1028C00009F0BBC080C040E1A416B10499F158E101
:1028D000A516B10409F0B1C0E1E0F0E0EC0FFD1F76
:1028E000E80DF91D2081E2E0F0E0EC0FFD1FE80D9E
:1028F000F91D8081F4013296A1E0B0E0AC0FBD1F5C
:10290000EA0FFB1FB3E08B0E911C3081CE57DF4FD7
:102910003883C258D040387F8C7F48E0849FC00104
:102920001124932B269526952695DC01A22B44C0D5
:10293000812C912CE1E0F0E0EC0FFD1FE80DF91D7A
:102940006081F401319621E030E02C0F3D1FE20F51
:10295000F31F32E0830E911C4081CE57DF4F488336
:10296000C258D040842F90E0CA56DF4F2881398169
:102970004A815B81C659D04023303105410551055C
:1029800059F4982F8827AC01462BCF56DF4F598337
:102990004883C159D04051C09C01322F2227330FA8
:1029A000962F907E892F90E0880F991F822B932B72
:1029B000462F4F71DC01A42BCF56DF4FB983A8837C
:1029C000C159D0403AC0CE57DF4FB881C258D0402D
:1029D000B1110CC002C0812C912CEFEF8E1A9E0A0F
:1029E000F8E0CE57DF4FF883C258D040C256DF4FD1
:1029F000A881B981CE59D0400D90BC91A02DCF5661
:102A0000DF4FB983A883C159D040CE57DF4FB8817B
:102A1000C258D040C056DF4FE881C05AD040BE1BDC
:102A2000CE57DF4FB883C258D04007C0CE57DF4FD4
:102A30001882C258D040812C912CCE55DF4FA881EE
:102A4000B981C25AD040CF56DF4FE881F981C159D0
:102A5000D040ED93FD93CE55DF4FB983A883C25A82
:102A6000D040C557DF4F28813981CB58D0402F5FE8
:102A70003F4FC557DF4F39832883CB58D040DCCE3A
:102A800017FF02C000E010E080911708909118082D
:102A90008B98CD56DF4F3881C359D040332309F48A
:102AA00084C08A9820910201277820930201A5987A
:102AB0002EB1277C2EB960910201292F3327A9015D
:102AC00043705527E5E0440F551FEA95E1F7462B83
:102AD000409302016EB1A9014C705527440F551F58
:102AE000440F551F462B4EB964B3A90140715527B9
:102AF000440F551F462B44BB6EB1A90140725527A8
:102B00005595479555954795462B4EB940910201ED
:102B1000207C332753E0359527955A95E1F7242BF0
:102B2000209302018998899A2091020127782093A5
:102B30000201A5982EB1277C2EB9409102019C017B
:102B40002370332765E0220F331F6A95E1F7242BAA
:102B5000209302014EB19C012C703327220F331FAA
:102B6000220F331F242B2EB944B39C01207133272D
:102B7000220F331F242B24BB4EB19C01207233271C
:102B80003595279535952795242B2EB9209102014F
:102B9000807C9927A3E095958795AA95E1F7822BEC
:102BA000809302018998899A8A9AA801FE01FD966C
:102BB000141615060CF098C080813296DF0111972B
:102BC0002C9190E0922B20918706222341F09C01CA
:102BD0002F713327220F331F817C822B932B20915F
:102BE0000201277820930201A5982EB1277C2EB9E7
:102BF000A0910201292F3327B90163707727B5E02F
:102C0000660F771FBA95E1F76A2B60930201AEB1A8
:102C1000B9016C707727660F771F660F771F6A2BD5
:102C20006EB9A4B3B90160717727660F771F6A2B5D
:102C300064BBAEB1B90160727727759567957595DC
:102C400067956A2B6EB960910201207C332773E08F
:102C5000359527957A95E1F7262B209302018998DF
:102C6000899A20910201277820930201A5982EB11C
:102C7000277C2EB9609102019C0123703327A5E0C7
:102C8000220F331FAA95E1F7262B209302016EB184
:102C90009C012C703327220F331F220F331F262B4A
:102CA0002EB964B39C0120713327220F331F262BCA
:102CB00024BB6EB19C01207233273595279535953D
:102CC0002795262B2EB920910201807C9927B3E00D
:102CD00095958795BA95E1F7822B809302018998A3
:102CE000899A4150510964CF8B9AE00EF11ECD565E
:102CF000DF4F1882C359D04074CD5FEFC51AD50A93
:102D0000C957DF4F288139814A815B81C758D0403C
:102D1000C656DF4F88819981AA81BB81CA59D040AC
:102D2000281B390B4A0B5B0BC957DF4F28833983AC
:102D30004A835B83C758D040480E591E6A1E7B1ECB
:102D400014CD0091F7071091F80701501109209157
:102D5000F5073091F6072150310940E050E060E07E
:102D600070E08DEE97E00E941E3410E007C013E083
:102D700005C014E003C015E001C012E0CE0189597E
:102D80009F4F0E94F120B3CAC755DF4F0FB6F8948A
:102D9000DEBF0FBECDBFDF91CF911F910F91FF908E
:102DA000EF90DF90CF90BF90AF909F908F907F90EB
:102DB0006F905F904F903F902F9008950F931F93C7
:102DC000CF93DF93CDB7DEB7E0970FB6F894DEBFB1
:102DD0000FBECDBF63EA75E0CE0185960E94DD414E
:102DE0008DA19EA104DA64EB75E0CE0101960E94EC
:102DF000DD41BE016F5F7F4FCE0107960E945B09E8
:102E000080E290E00E94DB598C0125E030E043E253
:102E1000BE01695F7F4F0E94C92DCE0107960E94B7
:102E2000D041CE0101960E94D04144E050E0B8016B
:102E3000CE014F960E94A92DBE01615E7F4FCE014B
:102E400001960E94D54180E290E00E94DB598C01FE
:102E500026E030E043E2BE016F5F7F4F0E94C92D44
:102E6000CE0101960E94D04140E050E0B801CE0171
:102E700049960E94A92D41E050E0B801CE01439649
:102E80000E94A92D42E050E0B801CE010D960E94AB
:102E9000A92D43E050E0B801CE0107960E94A92D6C
:102EA00044E050E0B801CE0101960E94A92D41EE08
:102EB00055E060E070E089E690E00E94224548E33A
:102EC00054E060E070E082E890E00E9422454BE32D
:102ED00054E060E070E08BE990E00E94224544E518
:102EE00055E060E070E084EB90E00E9422454CECFD
:102EF00055E060E070E08DEC90E00E942245BE015C
:102F0000675E7F4FCE018B960E94D54161E070E0F5
:102F1000CE018B9651D8CE018B960E94D041BE0136
:102F20006D5E7F4FCE018B960E94D54162E070E0CE
:102F3000CE018B9641D8CE018B960E94D041BE0126
:102F4000635F7F4FCE018B960E94D54163E070E0B6
:102F5000CE018B9631D8CE018B960E94D041BE0116
:102F6000695F7F4FCE018B960E94D54164E070E08F
:102F7000CE018B9621D8CE018B960E94D041BE0106
:102F80006F5F7F4FCE018B960E94D54165E070E068
:102F9000CE018B9611D8CE018B960E94D041CE01E6
:102FA00001960E94D041CE0107960E94D041CE01E9
:102FB0000D960E94D041CE0143960E94D041CE0191
:102FC00049960E94D041CE014F960E94D041CE0139
:102FD00085960E94D041E0960FB6F894DEBF0FBEF2
:102FE000CDBFDF91CF911F910F910895DC015996CC
:102FF000ED91FC915A973097B9F083899489A5890E
:10300000B6894285538564857585841B950BA60B0F
:10301000B70B811520E89207A105B10538F08FEFB5
:103020009FE7A0E0B0E0089580E090E008951F934E
:10303000CF93DF93EC0180E2689FF00111249F01A0
:103040002656374FD9011B969C91917129F0842FF8
:10305000827411F080E058C0142F6A8B80910302B3
:1030600090910402A0910502B09106028E879F877D
:10307000A88BB98BE656F74F4489558960E070E01C
:10308000BA01552744274F8B588F698F7A8F828DCD
:10309000938DA0E0B0E0482B592B6A2B7B2B4F8BF4
:1030A000588F698F7A8FD9011B968C91887151F452
:1030B000848D958DA68DB78D8B8B9C8BAD8BBE8BA8
:1030C00081E00DC0803131F69E012D5E3F4F8B8D2A
:1030D0009C8D0E945131882309F4BCCF84E08D83FC
:1030E000812F8F708C831E821F82188619861A8604
:1030F0001B861C861D8616FF06C0CE01DF91CF9170
:103100001F910C94464281E0DF91CF911F91089569
:103110003F924F925F926F927F928F929F92AF9267
:10312000BF92CF92DF92EF92FF920F931F93CF93B4
:10313000DF93CDB7DEB72C970FB6F894DEBF0FBE86
:10314000CDBF5C01DC015B968D909C905C971696E0
:10315000CD90DD90ED90FC901997C114D104E1045D
:10316000F10439F0BFEFCB1ADB0AEB0AFB0A312C72
:1031700007C0F401C080D180E280F380332433940F
:10318000F40181859285A385B4859C01AD012F5FF3
:103190003F4F4F4F5F4F29873A874B875C87260108
:1031A00037011D821E821F821886F4018185928557
:1031B000A385B4852D813E814F8158852817390715
:1031C0004A075B0708F063C089859A85AB85BC8593
:1031D0008C159D05AE05BF0550F482E0C82ED12C9C
:1031E000E12CF12C92E0492E512C612C712C9E0186
:1031F0002F5F3F4FB701A601C4010E94CE30882344
:1032000009F445C089819A81AB81BC81892B8A2BC5
:103210008B2B41F0260137019FEF491A590A690AA1
:10322000790A05C0C414D504E604F70491F02D8191
:103230003E814F8158852F5F3F4F4F4F5F4F2D830A
:103240003E834F8358873FEFC31AD30AE30AF30A3A
:10325000ACCF0FEF1FEF2FEF3FE0B301A201C4018E
:103260000E942F30882399F0D50116964D915D91DB
:103270006D917C911997411551056105710549F0D2
:1032800093018201C4010E942F30811102C080E0AD
:103290002AC0D50116964D925D926D927C92199737
:1032A000332051F0D301C2010196A11DB11DF401DB
:1032B00080839183A283B383F5018789908DA18D4B
:1032C000B28D892B8A2B8B2B69F4D50157964D92A1
:1032D0005D926D927C925A9714968C9114978068A7
:1032E00014968C9381E02C960FB6F894DEBF0FBE37
:1032F000CDBFDF91CF911F910F91FF90EF90DF90A5
:10330000CF90BF90AF909F908F907F906F905F9085
:103310004F903F900895CF93DF93EC018D818823E8
:10332000A1F18C8187FF2DC06E857F858889998961
:1033300041E00E94E72F882341F1EA8980E2E89F7B
:10334000F0011124DF01A656B74F1097F1F08D81DF
:10335000823050F44B895C896D897E895C964D93EF
:103360005D936D937C935F978F89988DA98DBA8DAE
:10337000E656F74F938F828FB58BA48B8C818F7716
:103380008C83DF91CF910C94AC2F80E0DF91CF91B3
:103390000895FC01818D928D009709F0BCCF0895AE
:1033A0008F929F92AF92BF92CF92DF92EF92FF9255
:1033B0000F931F93CF93DF93EC018D81811102C096
:1033C00080E077C00B891C892D893E890417150779
:1033D00026073707A8F36A017B01823029F4CA86E1
:1033E000DB86EC86FD860DC0C114D104E104F10436
:1033F00051F41E821F82188619861A861B861C8627
:103400001D8681E056C08A849B84AC84BD84EB8D8C
:10341000FC8D258530E0275F3F4FB501A401415069
:10342000510961097109022E04C076956795579577
:1034300047950A94D2F7D701C6010197A109B109AE
:1034400004C0B695A795979587952A95D2F78417C6
:103450009507A607B70720F089288A288B2849F402
:103460004F89588D698D7A8D4E835F836887798700
:1034700004C0841B950BA60BB70B4C015D018E019C
:103480000A5F1F4F81149104A104B10409F4A7CF6E
:103490004E815F816885798598018B8D9C8D0E9416
:1034A000CE3091E0891A9108A108B1088111EACFC4
:1034B00087CFDF91CF911F910F91FF90EF90DF9019
:1034C000CF90BF90AF909F908F9008954F925F9252
:1034D0006F927F929F92AF92BF92CF92DF92EF92C4
:1034E000FF920F931F93CF93DF93CDB7DEB72B9748
:1034F0000FB6F894DEBF0FBECDBF7C01DC01159680
:10350000AC90A11088C1FE0131966F0190E28BE072
:103510008E0F91938E13FDCFDA0130E087E09D91FD
:10352000992339F19E3219F0E0E8F2E00AC08A30BE
:1035300009F472C138E08AE0F2CF3196491709F4F4
:103540006BC144914111F9CF831708F465C14FED68
:10355000490F4E3508F060C141E0430FF601E30F1B
:10356000F11D3FE9390F3A3108F490529083342F1E
:10357000D6CF8981803209F44FC1B22E8B01DB0195
:103580005B968D919C915C97F701948F838F169633
:103590001D921D921D921C921997FB011286138693
:1035A00014861586712CF80182859385A485B585CE
:1035B000438954896589768984179507A607B707D3
:1035C00008F061C025E0B695A795979587952A954F
:1035D000D1F7F82FFF706F2ED80115968C9182309D
:1035E00008F41AC1C8010E94212997FD15C1F801EC
:1035F00082859385A485B5854F96A11DB11D8287CF
:103600009387A487B587F0E26F9EC0011124BC01A7
:103610006656774F6115710509F4FEC0DB012C91E8
:10362000222319F0253EC1F427C071100EC0F70106
:10363000628A4091030250910402609105027091E8
:10364000060246875787608B718BFC01E656F74F61
:103650008081811113C015C04BE050E0C6010E946B
:10366000F05B892B09F09FCF8B2D8073803309F499
:10367000D3C04B2D662DCBC07720C9F2772473942D
:1036800092CF772473948B2D8271823109F0C4C05C
:103690007720D1F0D7011E966D917D918D919C91EF
:1036A000519741E00E94E72F882309F4B5C0F70144
:1036B0006289F0E26F9FB00111246656774F611561
:1036C000710509F078C0A8C0D80115968C91823098
:1036D00009F4A2C0C8011CDD882309F49DC0D801EB
:1036E0005B96ED91FC915C9716964D905D906D9078
:1036F0007C901997B2E04B1A510861087108058453
:1037000004C0440C551C661C771C0A94D2F78685AD
:103710009785A089B189480E591E6A1E7B1E948028
:10372000E1E04E1A510861087108992009F10E94E0
:10373000AC2F882309F470C0EAE9F8E011922AE07E
:10374000EA39F207D9F7D301C201890D911DA11DF4
:10375000B11D8093030290930402A0930502B093DD
:103760000602809138068160809338069A94DDCFF6
:10377000D8015B96ED91FC915C9780E092E0A0E02F
:10378000B0E0058404C0880F991FAA1FBB1F0A94CC
:10379000D2F7F8014389548965897689840F951F8A
:1037A000A61FB71F838B948BA58BB68BD701529620
:1037B0001C926AE978E080E2FB0111928A95E9F7B0
:1037C0008BE0F601DB0101900D928A95E1F781E231
:1037D00098E2DB0151969C938E93509720E038E05D
:1037E0001F963C932E931E9753969C938E935297BD
:1037F00059969C938E93589757963C932E93569731
:103800000E94AC2F882341F04B2DF7016289C7013C
:103810000EDCA82E01C0A12C8A2D2B960FB6F89491
:10382000DEBF0FBECDBFDF91CF911F910F91FF90F3
:10383000EF90DF90CF90BF90AF909F907F906F9070
:103840005F904F900895CF93DF93EC0164DD882360
:1038500011F01D8281E0DF91CF91089561E0FC01BC
:1038600084810C94912CF89498E02F9887FF02C0E3
:103870002D9A01C02D98880F2F9A9150B1F7000012
:103880000000000000002F9878940895F8942D9A75
:1038900098E080E02F9A00000000880F1E99816058
:1038A0002F989150B9F7789408950F931F93CF9361
:1038B000DF93EB010E94532D8B01E8DF8F3F49F02E
:1038C0000E94532D601B710B6C177D07B0F380E0D5
:1038D00001C081E0DF91CF911F910F910895CF93A7
:1038E000DF93EC018E81882379F08F8198859C018C
:1038F0002F5F3F4F38872F838230924010F4C6DF0E
:10390000F4CFCE01ABDF1E82DF91CF910895CF922D
:10391000DF92FF920F931F93CF93DF9300D01F92FC
:10392000CDB7DEB76C01F62E29833A834B835C83D7
:10393000D6DF60E0F60184810E94912C6CE271E098
:10394000C601B3DF8F2D80648EDF08E110E05C815B
:103950004B813A812981DA01C901002E04C0B69554
:10396000A795979587950A94D2F729833A834B8335
:103970005C8379DF0850110929813A814B815C8190
:10398000083FFFEF1F0739F7FF2029F088E0F81202
:1039900004C087E803C085E901C08FEF64DF10E051
:1039A00075DFF601828787FF04C01F3F11F01F5F9C
:1039B000F7CF0F900F900F900F90DF91CF911F9145
:1039C0000F91FF90DF90CF900895AF92BF92CF926A
:1039D000DF92EF92FF920F931F93CF93DF93EC014F
:1039E0006901C801820F931F8130924008F06AC0BC
:1039F0008E81882371F088819981AA81BB814817C3
:103A000059076A077B0729F48F819885C816D9065C
:103A100098F5488359836A837B838B85833039F09B
:103A200089E0440F551F661F771F8A95D1F79A01C9
:103A3000AB0161E1CE016BDF882319F083E08D8358
:103A400041C00E94532D5B0121DF8A878F3F49F4DB
:103A50000E94532D6A197B096D327140A8F38FE0E3
:103A600003C08E3F29F08DE08D83CE01F7DE2AC0A2
:103A700018861F8281E08E838F8198858C159D0525
:103A800038F404DF8F819885019698878F83F4CF6F
:103A90006701E00EF11ECE14DF0429F0F7DEF60117
:103AA00081936F01F8CF8F819885080F191F1887B0
:103AB0000F838985882319F00115124038F0CE0153
:103AC0000EDF04C0CE01CADE80E001C081E0DF91DC
:103AD000CF911F910F91FF90EF90DF90CF90BF900B
:103AE000AF9008952F923F924F925F926F927F9284
:103AF0008F929F92AF92BF92CF92DF92EF92FF92FE
:103B00000F931F93CF93DF93EC016B014A018D81DB
:103B1000811103C08FEF9FEFD6C08C8180FFFACF59
:103B20004B885C886D887E884A855B856C857D8541
:103B3000C401A0E0B0E093018201041B150B260B29
:103B4000370B081719072A073B0718F44201841A94
:103B5000950A54011E0126E0220E311CA114B10465
:103B600009F47EC04A855B856C857D852A0181E0EC
:103B70005822ED818A019B0189E03695279517959A
:103B800007958A95D1F78B8D9C8DE23061F4FC010D
:103B9000828D938DA48DB58DBC01CD01600F711FF9
:103BA000821F931F3FC0FC0174807A9470224114DD
:103BB0005104C9F4711017C0452B462B472B49F40B
:103BC0008F89988DA98DBA8D8E839F83A887B98799
:103BD0000AC04E815F816885798591010E94CE304F
:103BE000882309F497CFEB8DFC8D8E819F81A8856A
:103BF000B9850297A109B109058404C0880F991FEE
:103C0000AA1FBB1F0A94D2F7468557856089718920
:103C1000840F951FA61FB71FBC01CD01670D711D35
:103C2000811D911D20E032E02419350935012A1546
:103C30003B0508F439012C8126FD04C06114F2E033
:103C40007F0681F400910302109104022091050285
:103C5000309106026017710782079307B1F402C022
:103C6000C40131C040E00E94E72F882309F452CFFD
:103C7000F201E656F74FD601CF01860D971DE817E2
:103C8000F90781F021912D93FACF760183019201FA
:103C9000AB01BC01809198089091990896DE882329
:103CA00009F438CFC60CD71C8A859B85AC85BD85A9
:103CB000860D971DA11DB11D8A879B87AC87BD8787
:103CC000A618B7084BCFDF91CF911F910F91FF90AE
:103CD000EF90DF90CF90BF90AF909F908F907F90AC
:103CE0006F905F904F903F902F900895CF92DF920A
:103CF000EF92FF920F931F93CF93DF93EC01890113
:103D0000411551056105710511F482E15FC08B8594
:103D1000833039F0E9E0440F551F661F771FEA959D
:103D2000D1F79A01AB0168E1CE01F1DD882311F0F2
:103D300084E04CC08C8598013E5F7901882329F18D
:103D4000F801C12CD12C419150E0BA016D25AB0195
:103D500094E0559547959A95E1F746275727DC2C2F
:103D6000CC24C426D526CA01982F88279295907F07
:103D7000C826D92665E0440F551F6A95E1F7C42689
:103D8000D526EE15FF05F9F603C0CC24CA94DC2C29
:103D90008EEF69DDF80181918F0165DD0E151F053C
:103DA000C9F78D2D60DD8C2D5EDD70DD8A878F710A
:103DB000853029F081E18D83CE0150DD08C068E5B2
:103DC00072E0CE0172DD811106C085E18D83CE01E6
:103DD00045DD80E010C020E030E0A9016DE0CE01BB
:103DE00096DD811103C052DD882311F084E1EECF0E
:103DF000CE0134DD81E0DF91CF911F910F91FF90D3
:103E0000EF90DF90CF9008952F923F924F925F9264
:103E10006F927F928F929F92AF92BF92CF92DF92DA
:103E2000EF92FF920F931F93CF93DF9300D01F92D7
:103E3000CDB7DEB78C015B011A01DC0115968C91C0
:103E400015978130C1F414968C9181FF14C082FFC4
:103E50001AC0F801438954896589768982859385DA
:103E6000A485B58584179507A607B70761F0C80133
:103E700097DA811108C081E090E0F8019383828392
:103E800080E090E036C1610182C0D8015B968D91DF
:103E90009C915C97FC01248121502A013B0139E06F
:103EA00076946794579447943A95D1F7722E74207C
:103EB0007A01F1E0FF22772009F475C080E092E0FA
:103EC0008E199F0946018C159D0508F44C01D801F7
:103ED0005B962D913C915C9716968D919D910D90DE
:103EE000BC91A02D0297A109B109F901058404C074
:103EF000880F991FAA1FBB1F0A94D2F746855785C2
:103F000060897189840F951FA61FB71F9C01AD01A1
:103F1000270D311D411D511D29013A01811432E047
:103F2000930609F086C08091030290910402A0914B
:103F30000502B091060284159505A605B70559F44A
:103F40008FEF9FEFDC018093030290930402A09314
:103F50000502B09306029501B301A2018091980871
:103F600090919908C3DE882309F485CF9EEFB91A92
:103F7000C818D908F80182859385A485B585880D70
:103F8000991DA11DB11D82879387A487B587D8018C
:103F90001A964D915D916D917C911D97C114D1043C
:103FA00009F073CF86C0E114F10409F087CF1696AB
:103FB0004D915D916D917C91199741155105610568
:103FC000710559F457968D919D910D90BC91A02D3E
:103FD0000097A105B10539F521C09E012F5F3F4F24
:103FE0000E94CE30882309F44CCF89819A81AB811D
:103FF000BC81F801238D348DF9012789203129F006
:1040000048EF5FEF6FEF7FE004C048EF5FEF60E0E5
:1040100070E084179507A607B70728F0C80178D87D
:1040200081114CCF28CFF80186839783A087B18771
:1040300045CFE114F10429F5D8011A964D915D910F
:104040006D917C911D9753968D919D910D90BC9192
:10405000A02D481759076A077B0798F00E94AC2FDC
:10406000882309F408CF4092030250920402609220
:1040700005027092060280913806816080933806AE
:1040800008C041E0C301B2010E94E72F882309F470
:10409000F2CED501F701E656F74FCF01880D991DF5
:1040A000E817F90719F02D912193FACFA80CB91C44
:1040B0005FCF53968D919D910D90BC91A02D84174B
:1040C0009507A607B70740F4F801438B548B658B1F
:1040D000768B848180688483D80114968C9183FDCB
:1040E00002C0C10106C0C80116D9882309F4C3CE95
:1040F000F8CF0F900F900F900F90DF91CF911F91FD
:104100000F91FF90EF90DF90CF90BF90AF909F9076
:104110008F907F906F905F904F903F902F90089579
:10412000CF93DF931F92CDB7DEB7698341E050E0B4
:10413000BE016F5F7F4F68DE0F90DF91CF910895D2
:10414000FC01DB0112968D919C91139793838283DE
:1041500089E592E09183808314968C9114978483EF
:1041600015968C911597858316964D915D916D915D
:104170007C91199746835783608771871A964D9172
:104180005D916D917C911D974287538764877587F8
:104190001E964D915D916D917C9151974687578701
:1041A000608B718B52968C915297828B53964D9166
:1041B0005D916D917C915697438B548B658B768B7B
:1041C00057964D915D916D917C915A97478B508F89
:1041D000618F728F5B968D919C915C97948F838F8A
:1041E0000895CF93DF93EC01898D9A8D009739F074
:1041F0002ADB898D9A8D0E94705A1A8E198EDF9152
:10420000CF910895FC01818D928D009709F06ACCC1
:1042100080E090E00895CF93DF931F92CDB7DEB793
:104220006983DC01ED91FC910280F381E02D41E096
:1042300050E0BE016F5F7F4F19950F90DF91CF91D6
:1042400008950895FC016370658B848195812681B2
:104250003781613039F0633029F091878087338767
:1042600022870895318720879387828708952F9228
:104270003F924F925F926F927F928F929F92AF92F6
:10428000BF92CF92DF92EF92FF920F931F93CF9343
:10429000DF93CDB7DEB76C970FB6F894DEBF0FBED5
:1042A000CDBF9C8F8B8F5B011A011F830E8337015B
:1042B000C982DC0158964D915C9159974115510581
:1042C00009F0E5C018968D919C91199768177907A8
:1042D0000CF0CAC11A968D919C911B97281639062D
:1042E0000CF0C2C18C2C912CFB0136E0C39EE00D7A
:1042F000F11D1124FB87EA871E161F060CF0B4C1BE
:10430000C40133E0880F991F3A95E1F79D878C87A8
:10431000820D931D181619060CF0A6C157968C91A4
:10432000811103C0203B08F02F5FAB8DBC8DED9158
:10433000FC9111970284F385E02DCD012A8F199508
:104340002A8DB5E02B9F90011124F5013596FF874A
:10435000EE87BB82AA822501A9014A195B09598B04
:10436000488BC10108969B8B8A8BE889F989E40DFB
:10437000F51DE057FD4F9491988761013D822C8295
:10438000A885A0FF13C0AB8DBC8DED91FC91B981C8
:10439000B13031F40484F585E02D2E813F8116C0C3
:1043A0000684F785E02DEE80FF801AC0EE81FF8144
:1043B0006E167F06F1F0AB8DBC8DED91FC91B9814D
:1043C000B13051F40484F585E02D9301A601B201CA
:1043D0008B8D9C8D19950DC00684F785E02D73019A
:1043E000840194014C815D816A817B818B8D9C8DE0
:1043F0001995E885E695E887FFEFCF1ADF0A2C814B
:104400003D81280D391D3D832C834A895B89C41663
:10441000D50609F0B5CF5FEF451A550A8A819B8111
:10442000880D991D9B838A83AE85BF854A165B06DE
:1044300009F09BCFEE81FF816E167F0609F4F2C072
:10444000EB8DFC8DA081B181F981F13079F4B5015A
:104450006B5F7F4F5096ED91FC915197830128E05F
:1044600030E0A1018B8D9C8D1995DCC06A857B8520
:10447000681979091E96ED91FC911F9773010C85BF
:104480001D859401A1018B8D9C8D1995CBC0FA01DE
:1044900034969491329765917491291BCB01B7E0C2
:1044A0002B9F800D911D1124FA01259134913B8B96
:1044B0002A8BFC01459154915B834A83FC0132961F
:1044C000C490319654915E87329614913196D4906F
:1044D0008981823058F0612E012E000C7708AD2DB5
:1044E0000D2C000CBB0BB987A88704C01986188651
:1044F000612C712CAB8DBC8DED91FC9111970284D8
:10450000F385E02DCD011995B9818B2E912C689CF6
:10451000C001699C900D789C900D1124FC01EA0D5E
:10452000FB1DFD87EC871C82712C612CE12F110F84
:10453000FF0B95012E0F3F1F3B872A87AC0CB11C48
:10454000A5014E0F5F1F5F8B4E8BC1018D0D911D1D
:10455000D7FC9A95998F888F4E85641608F062C0B3
:10456000862D90E048855985480F591F489D900138
:10457000499D300D589D300D1124D901A20DB31D58
:10458000B98BA88BAA84BB844C845D84DC80BA85FB
:10459000DB1AE88DF98DE80FF91FFD8BEC8B8D2D63
:1045A0008A0D2E893F89A216B306B9F1877061F48E
:1045B0008A819B810196EA89FB89AA81BB81EA0FE6
:1045C000FB1F74909B838A8377FE20C0AB8DBC8DCC
:1045D000ED91FC91B981B13061F40484F585E02D51
:1045E0002E813F814C895D89B5018B8D9C8D1995FC
:1045F0000DC00684F785E02DEE80FF8084019401D4
:1046000048895989B2018B8D9C8D1995770CEFEFF4
:10461000AE1ABE0A480C591CC2CF3C813C0D3C83EB
:1046200063949ACFAB8DBC8DED91FC911197068868
:10463000F789E02DCD016C960FB6F894DEBF0FBE62
:10464000CDBFDF91CF911F910F91FF90EF90DF9041
:10465000CF90BF90AF909F908F907F906F905F9022
:104660004F903F902F9019946C960FB6F894DEBF40
:104670000FBECDBFDF91CF911F910F91FF90EF90B3
:10468000DF90CF90BF90AF909F908F907F906F9072
:104690005F904F903F902F900895AF92BF92CF922E
:1046A000EF92FF920F931F93CF93DF93EC01262F8E
:1046B000888D998D009709F03FC06A3059F41D86A6
:1046C0001C862C898E859F8538E0239F800D911D47
:1046D000112440C06D3009F4A8C08E898823C1F030
:1046E0003C898C859D8546E0349F800D911D112469
:1046F00048855985481759075CF41D861C868E85A8
:104700009F8548E0349F800D911D11249F878E87DF
:10471000EA88FB88088919894E855F856C857D85C7
:10472000CC88CE01A4DD2C898C859D8536E0239F25
:10473000800D911D112442C06A3079F41D861C86BB
:104740002C89FC013696E4918E859F852E9F800DE5
:10475000911D11249F878E8768C06D3009F465C054
:10476000FC0134963491631708F45FC03196E491EC
:10477000E61708F45AC0FC013296A590B490462F73
:1047800050E0431B510937E0349FB001359F700D55
:104790001124A60EB71EF501329634913196E4919C
:1047A000332311F0E1110DC0F5013496E4912C8909
:1047B0008C859D85E29F800D911D11249D878C879E
:1047C00034C0F501359644915E89552311F16C8909
:1047D000E32FF0E0E40FF11D47FDFA956E9FD00145
:1047E0006F9FB00D11244C855D854A0F5B1FE885D6
:1047F000F985E417F5076CF41D861C86FC013696D6
:10480000E4918E859F856E9F800D911D11249F8759
:104810008E87EA88FB88088919894E855F856C85B3
:104820007D85CC88CE0123DDBFCF81E090E0DF9194
:10483000CF911F910F91FF90EF90CF90BF90AF90CD
:1048400008956F927F928F929F92AF92BF92CF9274
:10485000DF92EF92FF920F931F93CF93DF93EC01C0
:104860004B015A0169013801E881F9810284F3851D
:10487000E02D1995E881F9810288F389E02D8701FF
:104880009601A501B401CE011995E881F981A50130
:10489000460D571D415051090288F389E02D9601BC
:1048A000B401CE011995E881F9810088F189E02DE4
:1048B0009301A501B401CE011995E881F981C80CD5
:1048C000D91CB601615071090088F189E02D93016E
:1048D000A501CE011995E881F9810688F789E02DB7
:1048E000CE01DF91CF911F910F91FF90EF90DF905C
:1048F000CF90BF90AF909F908F907F906F901994C2
:10490000CF92DF92EF92FF920F931F93CF93DF939B
:1049100000D000D0CDB7DEB76C01DC01ED91FC9189
:104920006217730789F4041715072CF4942F852F49
:10493000A801092F182F041B150B98012F5F3F4F5B
:10494000048CF58DE02D12C04017510709F526178C
:1049500037072CF4962F872FB901292F382F261BC4
:10496000370B2F5F3F4F068CF78DE02D8701C60177
:10497000199526960FB6F894DEBF0FBECDBFDF9116
:10498000CF911F910F91FF90EF90DF90CF900895FE
:104990000284F385E02D2D833E834B835C83698302
:1049A0007A831995D601ED91FC910488F589E02D63
:1049B0002D813E814B815C8169817A81C601199587
:1049C000D601ED91FC910688F789E02DC601269667
:1049D0000FB6F894DEBF0FBECDBFDF91CF911F9110
:1049E0000F91FF90EF90DF90CF901994EF92FF928C
:1049F0000F931F93DC01ED91FC9111971A960D9185
:104A00001C911B9718962D913C91199700A0F1A12C
:104A1000E02D7B0140E050E060E070E019951F91CF
:104A20000F91FF90EF9008954F925F926F927F9257
:104A30008F929F92AF92BF92CF92DF92EF92FF92AE
:104A40000F931F93CF93DF931F921F92CDB7DEB7C3
:104A50006C015A0139014801DC01ED91FC9102849D
:104A6000F385E02D69837A8319956981462E7A81D1
:104A7000572E640C751CD601ED91FC914614570419
:104A80006CF40088F189E02D87019401A501B20141
:104A9000C6011995BFEF4B1A5B0AEDCF0688F7895F
:104AA000E02DC6010F900F90DF91CF911F910F91D4
:104AB000FF90EF90DF90CF90BF90AF909F908F903E
:104AC0007F906F905F904F901994AF92BF92CF926A
:104AD000DF92EF92FF920F931F93CF93DF9300D05B
:104AE0001F92CDB7DEB75C016901DC01ED91FC914D
:104AF0000284F385E02D4B835C8369837A83199567
:104B0000D501ED91FC9169817A819B012C0D3D1DB0
:104B1000215031090488F589E02D78014B815C81B1
:104B20008A01C5011995D501ED91FC910688F78997
:104B3000E02DC5010F900F900F900F90DF91CF9156
:104B40001F910F91FF90EF90DF90CF90BF90AF90AB
:104B50001994AF92BF92CF92DF92EF92FF920F9390
:104B60001F93CF93DF9300D01F92CDB7DEB75C01C8
:104B70006901DC01ED91FC910284F385E02D4B830A
:104B80005C8369837A831995D501ED91FC914B8102
:104B90005C81C40ED51EB1E0CB1AD1080488F5891A
:104BA000E02D7801860169817A819B01C501199503
:104BB000D501ED91FC910688F789E02DC5010F9094
:104BC0000F900F900F90DF91CF911F910F91FF9059
:104BD000EF90DF90CF90BF90AF9019940895EF922F
:104BE000FF920F931F93DC01ED91FC9100A0F1A1C6
:104BF000E02D19951F910F91FF90EF9008950F935D
:104C00001F93DC01ED91FC91068CF78DE02D199539
:104C10001F910F9108950F931F93DC01ED91FC916B
:104C2000048CF58DE02D19951F910F910895DC01ED
:104C3000ED91FC910084F185E02D199408952F9257
:104C40003F924F925F926F927F928F929F92AF921C
:104C5000BF92CF92DF92EF92FF920F931F93CF9369
:104C6000DF9300D0CDB7DEB74C017B836A836A0146
:104C7000590117019801241B350B37FF03C03195EB
:104C800021953109C5014A815B81841B950B97FFF2
:104C900003C091958195910951E05983821793073B
:104CA00014F019820BC09A2D8B2D5801092F182F43
:104CB0009A818B81DB82CA82C92ED82E8A819B8100
:104CC000A816B9065CF49C2D8D2D6801092F182FAC
:104CD0009A818B81BB82AA82A92EB82E2501AA8136
:104CE000BB814A1A5B0A38016C187D0877FE03C045
:104CF000719461947108720157FE03C0BFEFEB1A03
:104D0000FB0AF594E794C016D1061CF00FEF1FEFD5
:104D10001FC001E010E01CC0D401ED91FC91B981ED
:104D20000484F585E02D9101BB23C1F04A815B81AC
:104D3000B601C4011995E618F708F7FE04C0C00EC5
:104D4000D11EE40CF51CEA81FB813196FB83EA83DA
:104D50004A815B81A416B506FCF604C0A6016A81EF
:104D60007B81E7CF0F900F900F90DF91CF911F9134
:104D70000F91FF90EF90DF90CF90BF90AF909F90FA
:104D80008F907F906F905F904F903F902F900895FD
:104D9000CF93DF93EC01898D9A8D009739F481E0F0
:104DA00090E09B838A8380E090E00AC0FC0113823C
:104DB00012822AD8E98DFA8D22813381232B79F74B
:104DC000DF91CF910895CF93DF931F92CDB7DEB7D8
:104DD000FC01848D258D24FB992790F99627692F56
:104DE00070E071A360A380FF2DC0809188068823A6
:104DF000E1F0268D378D273483E8380719F0223506
:104E0000324531F4911102C082E007C086E005C04E
:104E1000911102C08AE001C088E08983AE014F5F32
:104E20005F4F61E081E090E00AC0911103C080E231
:104E300090E002C081E290E040E050E060E00E943B
:104E4000D3312EC0868D978D873222E9920780F468
:104E5000853222E99207A0F4803224E59207C1F05E
:104E6000833927E79207A1F084359140A9F408C05F
:104E7000863223E9920761F08930954B69F408C0C6
:104E8000660F771F660F771F636187E090E006C0AB
:104E9000626081E094E002C081E690E00E942B33E2
:104EA0000F90DF91CF910895AF92BF92CF92DF9292
:104EB000EF92FF920F931F93CF93DF93EC018091BA
:104EC0008706882349F0C7018F719927880F991F9A
:104ED000E1ECEE22E82AF92A37FF05C0620F731FC2
:104EE000319521953109260F371F77FF02C060E009
:104EF00070E088859985821793070CF49C016901FD
:104F0000C61AD70A17FF05C0400F511F119501950A
:104F10001109040F151F57FF02C040E050E08A85B9
:104F20009B85801791070CF48C015801A41AB50ACF
:104F30000150110921503109CE010E941E348B9875
:104F40008A988AA59BA520910201277820930201C7
:104F5000A5982EB1277C2EB960910201292F332705
:104F6000A9014370552705E0440F551F0A95E1F745
:104F7000462B409302016EB1A9014C705527440F96
:104F8000551F440F551F462B4EB964B3A9014071FC
:104F90005527440F551F462B44BB6EB1A9014072E3
:104FA00055275595479555954795462B4EB94091B0
:104FB0000201207C3327A3E035952795AA95E1F7D8
:104FC000242B209302018998899A20910201277845
:104FD00020930201A5982EB1277C2EB940910201A1
:104FE0009C0123703327B5E0220F331FBA95E1F7F8
:104FF000242B209302014EB19C012C703327220FE9
:10500000331F220F331F242B2EB944B39C01207170
:105010003327220F331F242B24BB4EB19C01207257
:1050200033273595279535952795242B2EB9209133
:105030000201807C992763E0959587956A95E1F751
:10504000822B809302018998899A8A9ACA14DB0478
:105050002CF49C2D8D2D6501A92EB82E8F2D99270E
:105060009C01237033272295220F207EAC014C70C7
:105070005527342F330F330FAC0140715527440FA0
:10508000BC017695679576956795562F587063E0C5
:10509000969587956A95E1F78871B70163707727D0
:1050A000962F9295990F907EB7016C707727660FB7
:1050B000660FF701E071FF277E2F770FD701B695B6
:1050C000A795B695A795A870F701B3E0F695E79573
:1050D000BA95E1F71E2F18711A141B040CF043C087
:1050E000F601B0910201B778B0930201A598BEB164
:1050F000B77CBEB9B0910201B22BB0930201BEB130
:10510000B32BBEB9B4B3B42BB4BBBEB1B52BBEB9CF
:10511000B0910201B82BB09302018998899AB0919D
:105120000201B778B0930201A598BEB1B77CBEB9B1
:10513000B0910201B92BB0930201BEB1B62BBEB93A
:10514000B4B3B72BB4BBBEB1BA2BBEB9B091020198
:10515000B12BB09302018998899A319711F6E1E059
:10516000AE1AB108B9CF8B9A8C8D80FF08C08E8D96
:105170009F8D8632954191F48D8980FF0FC00A85FD
:105180001B8501501109288539852150310940E0DE
:1051900050E060E070E0CE010E941E34DF91CF91BC
:1051A0001F910F91FF90EF90DF90CF90BF90AF9045
:1051B0000895FC011382128288EE93E0A0E0B0E033
:1051C00084839583A683B78385E692E09183808369
:1051D000128E118E14860895EF92FF920F931F93F3
:1051E000CF93DF93EC017B018A011B821A8288EE48
:1051F00093E0A0E0B0E08C839D83AE83BF8385E61F
:1052000092E0998388838DE190E00E94DB599A8F28
:10521000898F009779F02DE1F701DC0101900D9263
:105220002A95E1F74CE050E0B801CE010C960E94BF
:10523000215C188EDF91CF911F910F91FF90EF901D
:105240000895CF93DF931F92CDB7DEB741E050E0D2
:10525000BE016F5F7F4F0E94721D019719F4898113
:1052600090E002C08FEF9FEF0F90DF91CF910895F4
:10527000FC01818D928D009709F0E3CF8FEF9FEFB6
:1052800008950F931F93CF93DF93FC01818D928D2F
:105290000097B1F0EF01D5DF8C010F3F8FEF1807BA
:1052A00091F0898D9A8DFC014285538564857585C1
:1052B00041505109610971090E94D019C80105C006
:1052C00080E090E002C08FEF9FEFDF91CF911F91C0
:1052D0000F9108950F931F93CF93DF93EC018B01F0
:1052E00010161106ACF4FE01859194912496FE01EE
:1052F0003297659174918F3F2FEF920721F480E0F0
:1053000090E099D302C00E942B3304501109E8CFDA
:10531000DF91CF911F910F910895BF92CF92DF92AD
:10532000EF92FF920F931F93CF93DF93CDB7DEB72A
:1053300068970FB6F894DEBF0FBECDBF8C017B011E
:105340008EEFC82EDD24DA941E141F045CF5F801DC
:1053500084913196B4900E5F1F4F8F3729F0202F24
:10536000DE011196F80107C06B2D70E080E090E03F
:1053700062D3B12C11C09E2F921B9B1520F49491E7
:105380009D933196F8CF0B0D111DAE014F5F5F4F0E
:105390006B2D90E00E94D331C6018B199109E80E64
:1053A000F91ED2CF68960FB6F894DEBF0FBECDBF00
:1053B000DF91CF911F910F91FF90EF90DF90CF90F1
:1053C000BF900895FC01538D448D252F30E0842F2C
:1053D00090E0821B930B541710F0CF96089501971D
:1053E0000895FC01918D828D981761F0828DDF0107
:1053F000A80FB11D5D968C91928D9F5F9F73928FC8
:1054000090E008958FEF9FEF0895FC01918D828DBC
:10541000981731F0828DE80FF11D858D90E0089589
:105420008FEF9FEF0895FC01918D228D892F90E0E1
:10543000805C9F4F821B91098F739927089589E89B
:1054400096E0F1DF21E0892B09F420E0822F089516
:10545000FC01848DDF01A80FB11DA35ABF4F2C9111
:10546000848D90E001968F739927848FA689B789E0
:105470002C93A089B1898C9180648C93938D848DB9
:10548000981306C00288F389E02D80818F7D808388
:105490000895EF92FF920F931F93CF93DF93EC0148
:1054A00081E0888F9B8D8C8D981305C0E889F989E0
:1054B000808185FD23C0F62E0B8D10E00F5F1F4FFE
:1054C0000F731127E02E8C8DE8120BC00FB607FC6E
:1054D000FACFE889F989808185FFF5CFCE01B8DF61
:1054E000F2CF8B8DFE01E80FF11DE35AFF4FF082E2
:1054F0000B8FEA89FB898081806207C0EE89FF8972
:105500006083E889F98980818064808381E090E00C
:10551000DF91CF911F910F91FF90EF900895CF935E
:10552000DF93EC01888D8823C1F0EA89FB898081B3
:1055300085FD05C0A889B9898C9186FD0EC00FB67E
:1055400007FCF5CF808185FFF2CFA889B9898C91BE
:1055500085FFEDCFCE017CDFE8CFDF91CF910895BD
:1055600080E090E0892B19F06ADF811125C080E08E
:1055700090E0892B41F080E090E0892B21F00E949F
:10558000000081111CC080E090E0892B41F080E098
:1055900090E0892B21F00E940000811113C080E06F
:1055A00090E0892BA1F080E090E0892B81F00E94AF
:1055B000000081110AC008950E940000D8CF0E9407
:1055C0000000E1CF0E940000EACF0C940000089593
:1055D00090E0FC013197E231F10508F04EC08827D8
:1055E000EE58FF4F8F4F0C94BF59809180008F77FA
:1055F00003C0809180008F7D80938000089580910A
:105600008000877FF9CF84B58F7702C084B58F7D06
:1056100084BD08958091B0008F7703C08091B00061
:105620008F7D8093B0000895809190008F7707C0A0
:10563000809190008F7D03C080919000877F809340
:10564000900008958091A0008F7707C08091A000FE
:105650008F7D03C08091A000877F8093A000089574
:10566000809120018F7707C0809120018F7D03C03A
:1056700080912001877F8093200108953FB7F8949F
:105680008091830690918406A0918506B09186064C
:1056900026B5A89B05C02F3F19F00196A11DB11D8D
:1056A0003FBFBA2FA92F982F8827820F911DA11DC8
:1056B000B11DBC01CD0142E0660F771F881F991F05
:1056C0004A95D1F70895209126063091270628178C
:1056D000390771F49091240680912506981741F0BE
:1056E000E0912406F0E0E35CF94F808190E00895BA
:1056F0008FEF9FEF089508951F93CF93DF93DC0101
:105700005C962D913C915D972115310539F481E02E
:1057100090E013969C938E9312973DC05196ED9115
:10572000FC91529750969C915097892F80951FB766
:105730005E964C915E9741FB772770F941FD60952D
:10574000F8944081772311F0492B01C0482340830E
:10575000E9012197F1F748E0508160FF02C0592B21
:1057600001C058235083E9012197F1F76695415014
:1057700099F7772321F090818923808303C080816A
:10578000982B90831FBF5C968D919C915D9701979C
:10579000F1F721E030E0C901DF91CF911F91089529
:1057A00020912606309127062817390769F4809141
:1057B00025062091240690E0805C9F4F821B910972
:1057C00060E470E00C94AC5980E090E00895209182
:1057D00026063091270628173907B9F49091240638
:1057E00080912506981789F0E0912406F0E0E35CAB
:1057F000F94F80812091240630E02F5F3F4F2F73B7
:1058000033272093240690E008958FEF9FEF0895AB
:105810000E94EC5B1F920F920FB60F9211240BB6F1
:105820000F922F933F934F935F936F937F938F9339
:105830009F93AF93BF93EF93FF9389E896E008DEC1
:10584000FF91EF91BF91AF919F918F917F916F9158
:105850005F914F913F912F910F900BBE0F900FBE14
:105860000F901F9018951F920F920FB60F92112450
:105870000BB60F922F938F939F93EF93FF93E0912B
:105880009906F0919A068081E0919F06F091A0061A
:1058900082FD12C090818091A2068F5F8F7320914C
:1058A000A306821751F0E091A206F0E0E757F94F06
:1058B000958F8093A20601C08081FF91EF919F9107
:1058C0008F912F910F900BBE0F900FBE0F901F90D6
:1058D0001895CF93DF93282F30E0F901E655F84F64
:1058E0008491F901E659F74FD491F901EC5DF74F36
:1058F000C491CC2389F081116BDEEC2FF0E0EE0F28
:10590000FF1FE65FF74FA591B491EC91ED2381E085
:1059100090E021F480E002C080E090E0DF91CF9140
:1059200008951F93CF93DF93282F30E0F901E655B8
:10593000F84F8491F901E659F74FD491F901EC5DE4
:10594000F74FC491CC23C1F0162F811141DEEC2F0B
:10595000F0E0EE0FFF1FE051F84FA591B4918FB723
:10596000F894111105C09C91ED2FE095E92302C038
:10597000EC91ED2BEC938FBFDF91CF911F910895A8
:10598000CF93DF9390E0FC01E659F74F2491FC019F
:10599000EC5DF74F8491882361F190E0880F991FA7
:1059A000FC01E057F84FC591D491FC01E051F84F4C
:1059B000A591B491611109C09FB7F8948881209591
:1059C00082238883EC912E230BC0623061F49FB751
:1059D000F8943881822F809583238883EC912E2B35
:1059E0002C939FBF06C08FB7F894E8812E2B288395
:1059F0008FBFDF91CF910895863308F08653909141
:105A00007B00282F2870977F922B90937B008770C4
:105A1000806480937C0080917A00806480937A0017
:105A200080917A0086FDFCCF8091780020917900EA
:105A300090E0922B08958F929F92AF92BF92CF9257
:105A4000DF92EF92FF926B017C0118DE4B015C014B
:105A5000C114D104E104F104E9F010DEDC01CB0152
:105A600088199909AA09BB09883E9340A105B10587
:105A700078F321E0C21AD108E108F10888EE880E17
:105A800083E0981EA11CB11CC114D104E104F104EF
:105A900021F7DECFFF90EF90DF90CF90BF90AF90D7
:105AA0009F908F9008952FB7F89460917F06709122
:105AB000800680918106909182062FBF08951F92E3
:105AC0000F920FB60F9211242F933F938F939F93B2
:105AD000AF93BF9380917F0690918006A09181063D
